{
	"will-contract.sol": {
		"Will": {
			"abi": [
				{
					"inputs": [],
					"stateMutability": "payable",
					"type": "constructor"
				},
				{
					"inputs": [],
					"name": "payWill",
					"outputs": [],
					"stateMutability": "nonpayable",
					"type": "function"
				},
				{
					"inputs": [
						{
							"internalType": "address payable",
							"name": "wallet",
							"type": "address"
						},
						{
							"internalType": "uint256",
							"name": "amount",
							"type": "uint256"
						}
					],
					"name": "setInheritance",
					"outputs": [],
					"stateMutability": "nonpayable",
					"type": "function"
				}
			],
			"devdoc": {
				"kind": "dev",
				"methods": {},
				"version": 1
			},
			"evm": {
				"assembly": "    /* \"will-contract.sol\":63:1886  contract Will {... */\n  mstore(0x40, 0x80)\n    /* \"will-contract.sol\":232:242  msg.sender */\n  caller\n    /* \"will-contract.sol\":224:229  owner */\n  0x00\n  dup1\n    /* \"will-contract.sol\":224:242  owner = msg.sender */\n  0x0100\n  exp\n  dup2\n  sload\n  dup2\n  0xffffffffffffffffffffffffffffffffffffffff\n  mul\n  not\n  and\n  swap1\n  dup4\n  0xffffffffffffffffffffffffffffffffffffffff\n  and\n  mul\n  or\n  swap1\n  sstore\n  pop\n    /* \"will-contract.sol\":291:300  msg.value */\n  callvalue\n    /* \"will-contract.sol\":281:288  fortune */\n  0x01\n    /* \"will-contract.sol\":281:300  fortune = msg.value */\n  dup2\n  swap1\n  sstore\n  pop\n    /* \"will-contract.sol\":359:364  false */\n  0x00\n    /* \"will-contract.sol\":348:356  deceased */\n  0x02\n  0x00\n    /* \"will-contract.sol\":348:364  deceased = false */\n  0x0100\n  exp\n  dup2\n  sload\n  dup2\n  0xff\n  mul\n  not\n  and\n  swap1\n  dup4\n  iszero\n  iszero\n  mul\n  or\n  swap1\n  sstore\n  pop\n    /* \"will-contract.sol\":63:1886  contract Will {... */\n  dataSize(sub_0)\n  dup1\n  dataOffset(sub_0)\n  0x00\n  codecopy\n  0x00\n  return\nstop\n\nsub_0: assembly {\n        /* \"will-contract.sol\":63:1886  contract Will {... */\n      mstore(0x40, 0x80)\n      callvalue\n      dup1\n      iszero\n      tag_1\n      jumpi\n      0x00\n      dup1\n      revert\n    tag_1:\n      pop\n      jumpi(tag_2, lt(calldatasize, 0x04))\n      shr(0xe0, calldataload(0x00))\n      dup1\n      0x124ecc29\n      eq\n      tag_3\n      jumpi\n      dup1\n      0x88d51594\n      eq\n      tag_4\n      jumpi\n    tag_2:\n      0x00\n      dup1\n      revert\n        /* \"will-contract.sol\":1798:1884  function payWill() public onlyOwner {... */\n    tag_3:\n      tag_5\n      tag_6\n      jump\t// in\n    tag_5:\n      stop\n        /* \"will-contract.sol\":1088:1314  function setInheritance(address payable wallet, uint256 amount)... */\n    tag_4:\n      tag_7\n      0x04\n      dup1\n      calldatasize\n      sub\n      dup2\n      add\n      swap1\n      tag_8\n      swap2\n      swap1\n      tag_9\n      jump\t// in\n    tag_8:\n      tag_10\n      jump\t// in\n    tag_7:\n      stop\n        /* \"will-contract.sol\":1798:1884  function payWill() public onlyOwner {... */\n    tag_6:\n        /* \"will-contract.sol\":489:494  owner */\n      0x00\n      dup1\n      sload\n      swap1\n      0x0100\n      exp\n      swap1\n      div\n      0xffffffffffffffffffffffffffffffffffffffff\n      and\n        /* \"will-contract.sol\":475:494  msg.sender == owner */\n      0xffffffffffffffffffffffffffffffffffffffff\n      and\n        /* \"will-contract.sol\":475:485  msg.sender */\n      caller\n        /* \"will-contract.sol\":475:494  msg.sender == owner */\n      0xffffffffffffffffffffffffffffffffffffffff\n      and\n      eq\n        /* \"will-contract.sol\":467:495  require(msg.sender == owner) */\n      tag_12\n      jumpi\n      0x00\n      dup1\n      revert\n    tag_12:\n        /* \"will-contract.sol\":1855:1859  true */\n      0x01\n        /* \"will-contract.sol\":1844:1852  deceased */\n      0x02\n      0x00\n        /* \"will-contract.sol\":1844:1859  deceased = true */\n      0x0100\n      exp\n      dup2\n      sload\n      dup2\n      0xff\n      mul\n      not\n      and\n      swap1\n      dup4\n      iszero\n      iszero\n      mul\n      or\n      swap1\n      sstore\n      pop\n        /* \"will-contract.sol\":1869:1877  payout() */\n      tag_14\n        /* \"will-contract.sol\":1869:1875  payout */\n      tag_15\n        /* \"will-contract.sol\":1869:1877  payout() */\n      jump\t// in\n    tag_14:\n        /* \"will-contract.sol\":1798:1884  function payWill() public onlyOwner {... */\n      jump\t// out\n        /* \"will-contract.sol\":1088:1314  function setInheritance(address payable wallet, uint256 amount)... */\n    tag_10:\n        /* \"will-contract.sol\":489:494  owner */\n      0x00\n      dup1\n      sload\n      swap1\n      0x0100\n      exp\n      swap1\n      div\n      0xffffffffffffffffffffffffffffffffffffffff\n      and\n        /* \"will-contract.sol\":475:494  msg.sender == owner */\n      0xffffffffffffffffffffffffffffffffffffffff\n      and\n        /* \"will-contract.sol\":475:485  msg.sender */\n      caller\n        /* \"will-contract.sol\":475:494  msg.sender == owner */\n      0xffffffffffffffffffffffffffffffffffffffff\n      and\n      eq\n        /* \"will-contract.sol\":467:495  require(msg.sender == owner) */\n      tag_17\n      jumpi\n      0x00\n      dup1\n      revert\n    tag_17:\n        /* \"will-contract.sol\":1243:1256  familyWallets */\n      0x03\n        /* \"will-contract.sol\":1262:1268  wallet */\n      dup3\n        /* \"will-contract.sol\":1243:1269  familyWallets.push(wallet) */\n      swap1\n      dup1\n      0x01\n      dup2\n      sload\n      add\n      dup1\n      dup3\n      sstore\n      dup1\n      swap2\n      pop\n      pop\n      0x01\n      swap1\n      sub\n      swap1\n      0x00\n      mstore\n      keccak256(0x00, 0x20)\n      add\n      0x00\n      swap1\n      swap2\n      swap1\n      swap2\n      swap1\n      swap2\n      0x0100\n      exp\n      dup2\n      sload\n      dup2\n      0xffffffffffffffffffffffffffffffffffffffff\n      mul\n      not\n      and\n      swap1\n      dup4\n      0xffffffffffffffffffffffffffffffffffffffff\n      and\n      mul\n      or\n      swap1\n      sstore\n      pop\n        /* \"will-contract.sol\":1301:1307  amount */\n      dup1\n        /* \"will-contract.sol\":1279:1290  inheritance */\n      0x04\n        /* \"will-contract.sol\":1279:1298  inheritance[wallet] */\n      0x00\n        /* \"will-contract.sol\":1291:1297  wallet */\n      dup5\n        /* \"will-contract.sol\":1279:1298  inheritance[wallet] */\n      0xffffffffffffffffffffffffffffffffffffffff\n      and\n      0xffffffffffffffffffffffffffffffffffffffff\n      and\n      dup2\n      mstore\n      0x20\n      add\n      swap1\n      dup2\n      mstore\n      0x20\n      add\n      0x00\n      keccak256\n        /* \"will-contract.sol\":1279:1307  inheritance[wallet] = amount */\n      dup2\n      swap1\n      sstore\n      pop\n        /* \"will-contract.sol\":1088:1314  function setInheritance(address payable wallet, uint256 amount)... */\n      pop\n      pop\n      jump\t// out\n        /* \"will-contract.sol\":1374:1760  function payout() private mustBeDeceased {... */\n    tag_15:\n        /* \"will-contract.sol\":712:716  true */\n      0x01\n        /* \"will-contract.sol\":700:716  deceased == true */\n      iszero\n      iszero\n        /* \"will-contract.sol\":700:708  deceased */\n      0x02\n      0x00\n      swap1\n      sload\n      swap1\n      0x0100\n      exp\n      swap1\n      div\n      0xff\n      and\n        /* \"will-contract.sol\":700:716  deceased == true */\n      iszero\n      iszero\n      eq\n        /* \"will-contract.sol\":692:717  require(deceased == true) */\n      tag_21\n      jumpi\n      0x00\n      dup1\n      revert\n    tag_21:\n        /* \"will-contract.sol\":1430:1439  uint256 i */\n      0x00\n        /* \"will-contract.sol\":1425:1754  for (uint256 i = 0; i < familyWallets.length; i++) {... */\n    tag_23:\n        /* \"will-contract.sol\":1449:1462  familyWallets */\n      0x03\n        /* \"will-contract.sol\":1449:1469  familyWallets.length */\n      dup1\n      sload\n      swap1\n      pop\n        /* \"will-contract.sol\":1445:1446  i */\n      dup2\n        /* \"will-contract.sol\":1445:1469  i < familyWallets.length */\n      lt\n        /* \"will-contract.sol\":1425:1754  for (uint256 i = 0; i < familyWallets.length; i++) {... */\n      iszero\n      tag_24\n      jumpi\n        /* \"will-contract.sol\":1582:1594  bool success */\n      0x00\n        /* \"will-contract.sol\":1600:1613  familyWallets */\n      0x03\n        /* \"will-contract.sol\":1614:1615  i */\n      dup3\n        /* \"will-contract.sol\":1600:1616  familyWallets[i] */\n      dup2\n      sload\n      dup2\n      lt\n      tag_26\n      jumpi\n      tag_27\n      tag_28\n      jump\t// in\n    tag_27:\n    tag_26:\n      swap1\n      0x00\n      mstore\n      keccak256(0x00, 0x20)\n      add\n      0x00\n      swap1\n      sload\n      swap1\n      0x0100\n      exp\n      swap1\n      div\n      0xffffffffffffffffffffffffffffffffffffffff\n      and\n        /* \"will-contract.sol\":1600:1621  familyWallets[i].call */\n      0xffffffffffffffffffffffffffffffffffffffff\n      and\n        /* \"will-contract.sol\":1646:1657  inheritance */\n      0x04\n        /* \"will-contract.sol\":1646:1675  inheritance[familyWallets[i]] */\n      0x00\n        /* \"will-contract.sol\":1658:1671  familyWallets */\n      0x03\n        /* \"will-contract.sol\":1672:1673  i */\n      dup6\n        /* \"will-contract.sol\":1658:1674  familyWallets[i] */\n      dup2\n      sload\n      dup2\n      lt\n      tag_30\n      jumpi\n      tag_31\n      tag_28\n      jump\t// in\n    tag_31:\n    tag_30:\n      swap1\n      0x00\n      mstore\n      keccak256(0x00, 0x20)\n      add\n      0x00\n      swap1\n      sload\n      swap1\n      0x0100\n      exp\n      swap1\n      div\n      0xffffffffffffffffffffffffffffffffffffffff\n      and\n        /* \"will-contract.sol\":1646:1675  inheritance[familyWallets[i]] */\n      0xffffffffffffffffffffffffffffffffffffffff\n      and\n      0xffffffffffffffffffffffffffffffffffffffff\n      and\n      dup2\n      mstore\n      0x20\n      add\n      swap1\n      dup2\n      mstore\n      0x20\n      add\n      0x00\n      keccak256\n      sload\n        /* \"will-contract.sol\":1600:1693  familyWallets[i].call{... */\n      mload(0x40)\n      tag_33\n      swap1\n      tag_34\n      jump\t// in\n    tag_33:\n      0x00\n      mload(0x40)\n      dup1\n      dup4\n      sub\n      dup2\n      dup6\n      dup8\n      gas\n      call\n      swap3\n      pop\n      pop\n      pop\n      returndatasize\n      dup1\n      0x00\n      dup2\n      eq\n      tag_37\n      jumpi\n      mload(0x40)\n      swap2\n      pop\n      and(add(returndatasize, 0x3f), not(0x1f))\n      dup3\n      add\n      0x40\n      mstore\n      returndatasize\n      dup3\n      mstore\n      returndatasize\n      0x00\n      0x20\n      dup5\n      add\n      returndatacopy\n      jump(tag_36)\n    tag_37:\n      0x60\n      swap2\n      pop\n    tag_36:\n      pop\n        /* \"will-contract.sol\":1581:1693  (bool success, ) = familyWallets[i].call{... */\n      pop\n      swap1\n      pop\n        /* \"will-contract.sol\":1715:1722  success */\n      dup1\n        /* \"will-contract.sol\":1707:1743  require(success, \"Transfer failed.\") */\n      tag_38\n      jumpi\n      mload(0x40)\n      0x08c379a000000000000000000000000000000000000000000000000000000000\n      dup2\n      mstore\n      0x04\n      add\n      tag_39\n      swap1\n      tag_40\n      jump\t// in\n    tag_39:\n      mload(0x40)\n      dup1\n      swap2\n      sub\n      swap1\n      revert\n    tag_38:\n        /* \"will-contract.sol\":1476:1754  {... */\n      pop\n        /* \"will-contract.sol\":1471:1474  i++ */\n      dup1\n      dup1\n      tag_41\n      swap1\n      tag_42\n      jump\t// in\n    tag_41:\n      swap2\n      pop\n      pop\n        /* \"will-contract.sol\":1425:1754  for (uint256 i = 0; i < familyWallets.length; i++) {... */\n      jump(tag_23)\n    tag_24:\n      pop\n        /* \"will-contract.sol\":1374:1760  function payout() private mustBeDeceased {... */\n      jump\t// out\n        /* \"#utility.yul\":7:162   */\n    tag_44:\n        /* \"#utility.yul\":61:66   */\n      0x00\n        /* \"#utility.yul\":99:105   */\n      dup2\n        /* \"#utility.yul\":86:106   */\n      calldataload\n        /* \"#utility.yul\":77:106   */\n      swap1\n      pop\n        /* \"#utility.yul\":115:156   */\n      tag_46\n        /* \"#utility.yul\":150:155   */\n      dup2\n        /* \"#utility.yul\":115:156   */\n      tag_47\n      jump\t// in\n    tag_46:\n        /* \"#utility.yul\":7:162   */\n      swap3\n      swap2\n      pop\n      pop\n      jump\t// out\n        /* \"#utility.yul\":168:307   */\n    tag_48:\n        /* \"#utility.yul\":214:219   */\n      0x00\n        /* \"#utility.yul\":252:258   */\n      dup2\n        /* \"#utility.yul\":239:259   */\n      calldataload\n        /* \"#utility.yul\":230:259   */\n      swap1\n      pop\n        /* \"#utility.yul\":268:301   */\n      tag_50\n        /* \"#utility.yul\":295:300   */\n      dup2\n        /* \"#utility.yul\":268:301   */\n      tag_51\n      jump\t// in\n    tag_50:\n        /* \"#utility.yul\":168:307   */\n      swap3\n      swap2\n      pop\n      pop\n      jump\t// out\n        /* \"#utility.yul\":313:803   */\n    tag_9:\n        /* \"#utility.yul\":389:395   */\n      0x00\n        /* \"#utility.yul\":397:403   */\n      dup1\n        /* \"#utility.yul\":446:448   */\n      0x40\n        /* \"#utility.yul\":434:443   */\n      dup4\n        /* \"#utility.yul\":425:432   */\n      dup6\n        /* \"#utility.yul\":421:444   */\n      sub\n        /* \"#utility.yul\":417:449   */\n      slt\n        /* \"#utility.yul\":414:533   */\n      iszero\n      tag_53\n      jumpi\n        /* \"#utility.yul\":452:531   */\n      tag_54\n      tag_55\n      jump\t// in\n    tag_54:\n        /* \"#utility.yul\":414:533   */\n    tag_53:\n        /* \"#utility.yul\":572:573   */\n      0x00\n        /* \"#utility.yul\":597:658   */\n      tag_56\n        /* \"#utility.yul\":650:657   */\n      dup6\n        /* \"#utility.yul\":641:647   */\n      dup3\n        /* \"#utility.yul\":630:639   */\n      dup7\n        /* \"#utility.yul\":626:648   */\n      add\n        /* \"#utility.yul\":597:658   */\n      tag_44\n      jump\t// in\n    tag_56:\n        /* \"#utility.yul\":587:658   */\n      swap3\n      pop\n        /* \"#utility.yul\":543:668   */\n      pop\n        /* \"#utility.yul\":707:709   */\n      0x20\n        /* \"#utility.yul\":733:786   */\n      tag_57\n        /* \"#utility.yul\":778:785   */\n      dup6\n        /* \"#utility.yul\":769:775   */\n      dup3\n        /* \"#utility.yul\":758:767   */\n      dup7\n        /* \"#utility.yul\":754:776   */\n      add\n        /* \"#utility.yul\":733:786   */\n      tag_48\n      jump\t// in\n    tag_57:\n        /* \"#utility.yul\":723:786   */\n      swap2\n      pop\n        /* \"#utility.yul\":678:796   */\n      pop\n        /* \"#utility.yul\":313:803   */\n      swap3\n      pop\n      swap3\n      swap1\n      pop\n      jump\t// out\n        /* \"#utility.yul\":809:1207   */\n    tag_58:\n        /* \"#utility.yul\":968:971   */\n      0x00\n        /* \"#utility.yul\":989:1072   */\n      tag_60\n        /* \"#utility.yul\":1070:1071   */\n      0x00\n        /* \"#utility.yul\":1065:1068   */\n      dup4\n        /* \"#utility.yul\":989:1072   */\n      tag_61\n      jump\t// in\n    tag_60:\n        /* \"#utility.yul\":982:1072   */\n      swap2\n      pop\n        /* \"#utility.yul\":1081:1174   */\n      tag_62\n        /* \"#utility.yul\":1170:1173   */\n      dup3\n        /* \"#utility.yul\":1081:1174   */\n      tag_63\n      jump\t// in\n    tag_62:\n        /* \"#utility.yul\":1199:1200   */\n      0x00\n        /* \"#utility.yul\":1194:1197   */\n      dup3\n        /* \"#utility.yul\":1190:1201   */\n      add\n        /* \"#utility.yul\":1183:1201   */\n      swap1\n      pop\n        /* \"#utility.yul\":809:1207   */\n      swap2\n      swap1\n      pop\n      jump\t// out\n        /* \"#utility.yul\":1213:1579   */\n    tag_64:\n        /* \"#utility.yul\":1355:1358   */\n      0x00\n        /* \"#utility.yul\":1376:1443   */\n      tag_66\n        /* \"#utility.yul\":1440:1442   */\n      0x10\n        /* \"#utility.yul\":1435:1438   */\n      dup4\n        /* \"#utility.yul\":1376:1443   */\n      tag_67\n      jump\t// in\n    tag_66:\n        /* \"#utility.yul\":1369:1443   */\n      swap2\n      pop\n        /* \"#utility.yul\":1452:1545   */\n      tag_68\n        /* \"#utility.yul\":1541:1544   */\n      dup3\n        /* \"#utility.yul\":1452:1545   */\n      tag_69\n      jump\t// in\n    tag_68:\n        /* \"#utility.yul\":1570:1572   */\n      0x20\n        /* \"#utility.yul\":1565:1568   */\n      dup3\n        /* \"#utility.yul\":1561:1573   */\n      add\n        /* \"#utility.yul\":1554:1573   */\n      swap1\n      pop\n        /* \"#utility.yul\":1213:1579   */\n      swap2\n      swap1\n      pop\n      jump\t// out\n        /* \"#utility.yul\":1585:1964   */\n    tag_34:\n        /* \"#utility.yul\":1769:1772   */\n      0x00\n        /* \"#utility.yul\":1791:1938   */\n      tag_71\n        /* \"#utility.yul\":1934:1937   */\n      dup3\n        /* \"#utility.yul\":1791:1938   */\n      tag_58\n      jump\t// in\n    tag_71:\n        /* \"#utility.yul\":1784:1938   */\n      swap2\n      pop\n        /* \"#utility.yul\":1955:1958   */\n      dup2\n        /* \"#utility.yul\":1948:1958   */\n      swap1\n      pop\n        /* \"#utility.yul\":1585:1964   */\n      swap2\n      swap1\n      pop\n      jump\t// out\n        /* \"#utility.yul\":1970:2389   */\n    tag_40:\n        /* \"#utility.yul\":2136:2140   */\n      0x00\n        /* \"#utility.yul\":2174:2176   */\n      0x20\n        /* \"#utility.yul\":2163:2172   */\n      dup3\n        /* \"#utility.yul\":2159:2177   */\n      add\n        /* \"#utility.yul\":2151:2177   */\n      swap1\n      pop\n        /* \"#utility.yul\":2223:2232   */\n      dup2\n        /* \"#utility.yul\":2217:2221   */\n      dup2\n        /* \"#utility.yul\":2213:2233   */\n      sub\n        /* \"#utility.yul\":2209:2210   */\n      0x00\n        /* \"#utility.yul\":2198:2207   */\n      dup4\n        /* \"#utility.yul\":2194:2211   */\n      add\n        /* \"#utility.yul\":2187:2234   */\n      mstore\n        /* \"#utility.yul\":2251:2382   */\n      tag_73\n        /* \"#utility.yul\":2377:2381   */\n      dup2\n        /* \"#utility.yul\":2251:2382   */\n      tag_64\n      jump\t// in\n    tag_73:\n        /* \"#utility.yul\":2243:2382   */\n      swap1\n      pop\n        /* \"#utility.yul\":1970:2389   */\n      swap2\n      swap1\n      pop\n      jump\t// out\n        /* \"#utility.yul\":2476:2623   */\n    tag_61:\n        /* \"#utility.yul\":2577:2588   */\n      0x00\n        /* \"#utility.yul\":2614:2617   */\n      dup2\n        /* \"#utility.yul\":2599:2617   */\n      swap1\n      pop\n        /* \"#utility.yul\":2476:2623   */\n      swap3\n      swap2\n      pop\n      pop\n      jump\t// out\n        /* \"#utility.yul\":2629:2798   */\n    tag_67:\n        /* \"#utility.yul\":2713:2724   */\n      0x00\n        /* \"#utility.yul\":2747:2753   */\n      dup3\n        /* \"#utility.yul\":2742:2745   */\n      dup3\n        /* \"#utility.yul\":2735:2754   */\n      mstore\n        /* \"#utility.yul\":2787:2791   */\n      0x20\n        /* \"#utility.yul\":2782:2785   */\n      dup3\n        /* \"#utility.yul\":2778:2792   */\n      add\n        /* \"#utility.yul\":2763:2792   */\n      swap1\n      pop\n        /* \"#utility.yul\":2629:2798   */\n      swap3\n      swap2\n      pop\n      pop\n      jump\t// out\n        /* \"#utility.yul\":2804:2908   */\n    tag_78:\n        /* \"#utility.yul\":2849:2856   */\n      0x00\n        /* \"#utility.yul\":2878:2902   */\n      tag_80\n        /* \"#utility.yul\":2896:2901   */\n      dup3\n        /* \"#utility.yul\":2878:2902   */\n      tag_81\n      jump\t// in\n    tag_80:\n        /* \"#utility.yul\":2867:2902   */\n      swap1\n      pop\n        /* \"#utility.yul\":2804:2908   */\n      swap2\n      swap1\n      pop\n      jump\t// out\n        /* \"#utility.yul\":2914:3040   */\n    tag_81:\n        /* \"#utility.yul\":2951:2958   */\n      0x00\n        /* \"#utility.yul\":2991:3033   */\n      0xffffffffffffffffffffffffffffffffffffffff\n        /* \"#utility.yul\":2984:2989   */\n      dup3\n        /* \"#utility.yul\":2980:3034   */\n      and\n        /* \"#utility.yul\":2969:3034   */\n      swap1\n      pop\n        /* \"#utility.yul\":2914:3040   */\n      swap2\n      swap1\n      pop\n      jump\t// out\n        /* \"#utility.yul\":3046:3123   */\n    tag_83:\n        /* \"#utility.yul\":3083:3090   */\n      0x00\n        /* \"#utility.yul\":3112:3117   */\n      dup2\n        /* \"#utility.yul\":3101:3117   */\n      swap1\n      pop\n        /* \"#utility.yul\":3046:3123   */\n      swap2\n      swap1\n      pop\n      jump\t// out\n        /* \"#utility.yul\":3129:3362   */\n    tag_42:\n        /* \"#utility.yul\":3168:3171   */\n      0x00\n        /* \"#utility.yul\":3191:3215   */\n      tag_86\n        /* \"#utility.yul\":3209:3214   */\n      dup3\n        /* \"#utility.yul\":3191:3215   */\n      tag_83\n      jump\t// in\n    tag_86:\n        /* \"#utility.yul\":3182:3215   */\n      swap2\n      pop\n        /* \"#utility.yul\":3237:3303   */\n      0xffffffffffffffffffffffffffffffffffffffffffffffffffffffffffffffff\n        /* \"#utility.yul\":3230:3235   */\n      dup3\n        /* \"#utility.yul\":3227:3304   */\n      eq\n        /* \"#utility.yul\":3224:3327   */\n      iszero\n      tag_87\n      jumpi\n        /* \"#utility.yul\":3307:3325   */\n      tag_88\n      tag_89\n      jump\t// in\n    tag_88:\n        /* \"#utility.yul\":3224:3327   */\n    tag_87:\n        /* \"#utility.yul\":3354:3355   */\n      0x01\n        /* \"#utility.yul\":3347:3352   */\n      dup3\n        /* \"#utility.yul\":3343:3356   */\n      add\n        /* \"#utility.yul\":3336:3356   */\n      swap1\n      pop\n        /* \"#utility.yul\":3129:3362   */\n      swap2\n      swap1\n      pop\n      jump\t// out\n        /* \"#utility.yul\":3368:3548   */\n    tag_89:\n        /* \"#utility.yul\":3416:3493   */\n      0x4e487b7100000000000000000000000000000000000000000000000000000000\n        /* \"#utility.yul\":3413:3414   */\n      0x00\n        /* \"#utility.yul\":3406:3494   */\n      mstore\n        /* \"#utility.yul\":3513:3517   */\n      0x11\n        /* \"#utility.yul\":3510:3511   */\n      0x04\n        /* \"#utility.yul\":3503:3518   */\n      mstore\n        /* \"#utility.yul\":3537:3541   */\n      0x24\n        /* \"#utility.yul\":3534:3535   */\n      0x00\n        /* \"#utility.yul\":3527:3542   */\n      revert\n        /* \"#utility.yul\":3554:3734   */\n    tag_28:\n        /* \"#utility.yul\":3602:3679   */\n      0x4e487b7100000000000000000000000000000000000000000000000000000000\n        /* \"#utility.yul\":3599:3600   */\n      0x00\n        /* \"#utility.yul\":3592:3680   */\n      mstore\n        /* \"#utility.yul\":3699:3703   */\n      0x32\n        /* \"#utility.yul\":3696:3697   */\n      0x04\n        /* \"#utility.yul\":3689:3704   */\n      mstore\n        /* \"#utility.yul\":3723:3727   */\n      0x24\n        /* \"#utility.yul\":3720:3721   */\n      0x00\n        /* \"#utility.yul\":3713:3728   */\n      revert\n        /* \"#utility.yul\":3863:3980   */\n    tag_55:\n        /* \"#utility.yul\":3972:3973   */\n      0x00\n        /* \"#utility.yul\":3969:3970   */\n      dup1\n        /* \"#utility.yul\":3962:3974   */\n      revert\n        /* \"#utility.yul\":3986:4100   */\n    tag_63:\n      pop\n      jump\t// out\n        /* \"#utility.yul\":4106:4272   */\n    tag_69:\n        /* \"#utility.yul\":4246:4264   */\n      0x5472616e73666572206661696c65642e00000000000000000000000000000000\n        /* \"#utility.yul\":4242:4243   */\n      0x00\n        /* \"#utility.yul\":4234:4240   */\n      dup3\n        /* \"#utility.yul\":4230:4244   */\n      add\n        /* \"#utility.yul\":4223:4265   */\n      mstore\n        /* \"#utility.yul\":4106:4272   */\n      pop\n      jump\t// out\n        /* \"#utility.yul\":4278:4416   */\n    tag_47:\n        /* \"#utility.yul\":4359:4391   */\n      tag_98\n        /* \"#utility.yul\":4385:4390   */\n      dup2\n        /* \"#utility.yul\":4359:4391   */\n      tag_78\n      jump\t// in\n    tag_98:\n        /* \"#utility.yul\":4352:4357   */\n      dup2\n        /* \"#utility.yul\":4349:4392   */\n      eq\n        /* \"#utility.yul\":4339:4410   */\n      tag_99\n      jumpi\n        /* \"#utility.yul\":4406:4407   */\n      0x00\n        /* \"#utility.yul\":4403:4404   */\n      dup1\n        /* \"#utility.yul\":4396:4408   */\n      revert\n        /* \"#utility.yul\":4339:4410   */\n    tag_99:\n        /* \"#utility.yul\":4278:4416   */\n      pop\n      jump\t// out\n        /* \"#utility.yul\":4422:4544   */\n    tag_51:\n        /* \"#utility.yul\":4495:4519   */\n      tag_101\n        /* \"#utility.yul\":4513:4518   */\n      dup2\n        /* \"#utility.yul\":4495:4519   */\n      tag_83\n      jump\t// in\n    tag_101:\n        /* \"#utility.yul\":4488:4493   */\n      dup2\n        /* \"#utility.yul\":4485:4520   */\n      eq\n        /* \"#utility.yul\":4475:4538   */\n      tag_102\n      jumpi\n        /* \"#utility.yul\":4534:4535   */\n      0x00\n        /* \"#utility.yul\":4531:4532   */\n      dup1\n        /* \"#utility.yul\":4524:4536   */\n      revert\n        /* \"#utility.yul\":4475:4538   */\n    tag_102:\n        /* \"#utility.yul\":4422:4544   */\n      pop\n      jump\t// out\n\n    auxdata: 0xa264697066735822122008205560d08555f871d350aacbbb50efe11c728ee0dc74e9c13edb4b5abd776e64736f6c63430008070033\n}\n",
				"bytecode": {
					"linkReferences": {},
					"object": "6080604052336000806101000a81548173ffffffffffffffffffffffffffffffffffffffff021916908373ffffffffffffffffffffffffffffffffffffffff160217905550346001819055506000600260006101000a81548160ff021916908315150217905550610608806100756000396000f3fe608060405234801561001057600080fd5b50600436106100365760003560e01c8063124ecc291461003b57806388d5159414610045575b600080fd5b610043610061565b005b61005f600480360381019061005a91906103b9565b6100de565b005b60008054906101000a900473ffffffffffffffffffffffffffffffffffffffff1673ffffffffffffffffffffffffffffffffffffffff163373ffffffffffffffffffffffffffffffffffffffff16146100b957600080fd5b6001600260006101000a81548160ff0219169083151502179055506100dc6101e1565b565b60008054906101000a900473ffffffffffffffffffffffffffffffffffffffff1673ffffffffffffffffffffffffffffffffffffffff163373ffffffffffffffffffffffffffffffffffffffff161461013657600080fd5b6003829080600181540180825580915050600190039060005260206000200160009091909190916101000a81548173ffffffffffffffffffffffffffffffffffffffff021916908373ffffffffffffffffffffffffffffffffffffffff16021790555080600460008473ffffffffffffffffffffffffffffffffffffffff1673ffffffffffffffffffffffffffffffffffffffff168152602001908152602001600020819055505050565b60011515600260009054906101000a900460ff1615151461020157600080fd5b60005b60038054905081101561038c5760006003828154811061022757610226610544565b5b9060005260206000200160009054906101000a900473ffffffffffffffffffffffffffffffffffffffff1673ffffffffffffffffffffffffffffffffffffffff1660046000600385815481106102805761027f610544565b5b9060005260206000200160009054906101000a900473ffffffffffffffffffffffffffffffffffffffff1673ffffffffffffffffffffffffffffffffffffffff1673ffffffffffffffffffffffffffffffffffffffff168152602001908152602001600020546040516102f29061043f565b60006040518083038185875af1925050503d806000811461032f576040519150601f19603f3d011682016040523d82523d6000602084013e610334565b606091505b5050905080610378576040517f08c379a000000000000000000000000000000000000000000000000000000000815260040161036f90610454565b60405180910390fd5b508080610384906104cc565b915050610204565b50565b60008135905061039e816105a4565b92915050565b6000813590506103b3816105bb565b92915050565b600080604083850312156103d0576103cf610573565b5b60006103de8582860161038f565b92505060206103ef858286016103a4565b9150509250929050565b6000610406600083610474565b915061041182610578565b600082019050919050565b600061042960108361047f565b91506104348261057b565b602082019050919050565b600061044a826103f9565b9150819050919050565b6000602082019050818103600083015261046d8161041c565b9050919050565b600081905092915050565b600082825260208201905092915050565b600061049b826104a2565b9050919050565b600073ffffffffffffffffffffffffffffffffffffffff82169050919050565b6000819050919050565b60006104d7826104c2565b91507fffffffffffffffffffffffffffffffffffffffffffffffffffffffffffffffff82141561050a57610509610515565b5b600182019050919050565b7f4e487b7100000000000000000000000000000000000000000000000000000000600052601160045260246000fd5b7f4e487b7100000000000000000000000000000000000000000000000000000000600052603260045260246000fd5b600080fd5b50565b7f5472616e73666572206661696c65642e00000000000000000000000000000000600082015250565b6105ad81610490565b81146105b857600080fd5b50565b6105c4816104c2565b81146105cf57600080fd5b5056fea264697066735822122008205560d08555f871d350aacbbb50efe11c728ee0dc74e9c13edb4b5abd776e64736f6c63430008070033",
					"opcodes": "PUSH1 0x80 PUSH1 0x40 MSTORE CALLER PUSH1 0x0 DUP1 PUSH2 0x100 EXP DUP2 SLOAD DUP2 PUSH20 0xFFFFFFFFFFFFFFFFFFFFFFFFFFFFFFFFFFFFFFFF MUL NOT AND SWAP1 DUP4 PUSH20 0xFFFFFFFFFFFFFFFFFFFFFFFFFFFFFFFFFFFFFFFF AND MUL OR SWAP1 SSTORE POP CALLVALUE PUSH1 0x1 DUP2 SWAP1 SSTORE POP PUSH1 0x0 PUSH1 0x2 PUSH1 0x0 PUSH2 0x100 EXP DUP2 SLOAD DUP2 PUSH1 0xFF MUL NOT AND SWAP1 DUP4 ISZERO ISZERO MUL OR SWAP1 SSTORE POP PUSH2 0x608 DUP1 PUSH2 0x75 PUSH1 0x0 CODECOPY PUSH1 0x0 RETURN INVALID PUSH1 0x80 PUSH1 0x40 MSTORE CALLVALUE DUP1 ISZERO PUSH2 0x10 JUMPI PUSH1 0x0 DUP1 REVERT JUMPDEST POP PUSH1 0x4 CALLDATASIZE LT PUSH2 0x36 JUMPI PUSH1 0x0 CALLDATALOAD PUSH1 0xE0 SHR DUP1 PUSH4 0x124ECC29 EQ PUSH2 0x3B JUMPI DUP1 PUSH4 0x88D51594 EQ PUSH2 0x45 JUMPI JUMPDEST PUSH1 0x0 DUP1 REVERT JUMPDEST PUSH2 0x43 PUSH2 0x61 JUMP JUMPDEST STOP JUMPDEST PUSH2 0x5F PUSH1 0x4 DUP1 CALLDATASIZE SUB DUP2 ADD SWAP1 PUSH2 0x5A SWAP2 SWAP1 PUSH2 0x3B9 JUMP JUMPDEST PUSH2 0xDE JUMP JUMPDEST STOP JUMPDEST PUSH1 0x0 DUP1 SLOAD SWAP1 PUSH2 0x100 EXP SWAP1 DIV PUSH20 0xFFFFFFFFFFFFFFFFFFFFFFFFFFFFFFFFFFFFFFFF AND PUSH20 0xFFFFFFFFFFFFFFFFFFFFFFFFFFFFFFFFFFFFFFFF AND CALLER PUSH20 0xFFFFFFFFFFFFFFFFFFFFFFFFFFFFFFFFFFFFFFFF AND EQ PUSH2 0xB9 JUMPI PUSH1 0x0 DUP1 REVERT JUMPDEST PUSH1 0x1 PUSH1 0x2 PUSH1 0x0 PUSH2 0x100 EXP DUP2 SLOAD DUP2 PUSH1 0xFF MUL NOT AND SWAP1 DUP4 ISZERO ISZERO MUL OR SWAP1 SSTORE POP PUSH2 0xDC PUSH2 0x1E1 JUMP JUMPDEST JUMP JUMPDEST PUSH1 0x0 DUP1 SLOAD SWAP1 PUSH2 0x100 EXP SWAP1 DIV PUSH20 0xFFFFFFFFFFFFFFFFFFFFFFFFFFFFFFFFFFFFFFFF AND PUSH20 0xFFFFFFFFFFFFFFFFFFFFFFFFFFFFFFFFFFFFFFFF AND CALLER PUSH20 0xFFFFFFFFFFFFFFFFFFFFFFFFFFFFFFFFFFFFFFFF AND EQ PUSH2 0x136 JUMPI PUSH1 0x0 DUP1 REVERT JUMPDEST PUSH1 0x3 DUP3 SWAP1 DUP1 PUSH1 0x1 DUP2 SLOAD ADD DUP1 DUP3 SSTORE DUP1 SWAP2 POP POP PUSH1 0x1 SWAP1 SUB SWAP1 PUSH1 0x0 MSTORE PUSH1 0x20 PUSH1 0x0 KECCAK256 ADD PUSH1 0x0 SWAP1 SWAP2 SWAP1 SWAP2 SWAP1 SWAP2 PUSH2 0x100 EXP DUP2 SLOAD DUP2 PUSH20 0xFFFFFFFFFFFFFFFFFFFFFFFFFFFFFFFFFFFFFFFF MUL NOT AND SWAP1 DUP4 PUSH20 0xFFFFFFFFFFFFFFFFFFFFFFFFFFFFFFFFFFFFFFFF AND MUL OR SWAP1 SSTORE POP DUP1 PUSH1 0x4 PUSH1 0x0 DUP5 PUSH20 0xFFFFFFFFFFFFFFFFFFFFFFFFFFFFFFFFFFFFFFFF AND PUSH20 0xFFFFFFFFFFFFFFFFFFFFFFFFFFFFFFFFFFFFFFFF AND DUP2 MSTORE PUSH1 0x20 ADD SWAP1 DUP2 MSTORE PUSH1 0x20 ADD PUSH1 0x0 KECCAK256 DUP2 SWAP1 SSTORE POP POP POP JUMP JUMPDEST PUSH1 0x1 ISZERO ISZERO PUSH1 0x2 PUSH1 0x0 SWAP1 SLOAD SWAP1 PUSH2 0x100 EXP SWAP1 DIV PUSH1 0xFF AND ISZERO ISZERO EQ PUSH2 0x201 JUMPI PUSH1 0x0 DUP1 REVERT JUMPDEST PUSH1 0x0 JUMPDEST PUSH1 0x3 DUP1 SLOAD SWAP1 POP DUP2 LT ISZERO PUSH2 0x38C JUMPI PUSH1 0x0 PUSH1 0x3 DUP3 DUP2 SLOAD DUP2 LT PUSH2 0x227 JUMPI PUSH2 0x226 PUSH2 0x544 JUMP JUMPDEST JUMPDEST SWAP1 PUSH1 0x0 MSTORE PUSH1 0x20 PUSH1 0x0 KECCAK256 ADD PUSH1 0x0 SWAP1 SLOAD SWAP1 PUSH2 0x100 EXP SWAP1 DIV PUSH20 0xFFFFFFFFFFFFFFFFFFFFFFFFFFFFFFFFFFFFFFFF AND PUSH20 0xFFFFFFFFFFFFFFFFFFFFFFFFFFFFFFFFFFFFFFFF AND PUSH1 0x4 PUSH1 0x0 PUSH1 0x3 DUP6 DUP2 SLOAD DUP2 LT PUSH2 0x280 JUMPI PUSH2 0x27F PUSH2 0x544 JUMP JUMPDEST JUMPDEST SWAP1 PUSH1 0x0 MSTORE PUSH1 0x20 PUSH1 0x0 KECCAK256 ADD PUSH1 0x0 SWAP1 SLOAD SWAP1 PUSH2 0x100 EXP SWAP1 DIV PUSH20 0xFFFFFFFFFFFFFFFFFFFFFFFFFFFFFFFFFFFFFFFF AND PUSH20 0xFFFFFFFFFFFFFFFFFFFFFFFFFFFFFFFFFFFFFFFF AND PUSH20 0xFFFFFFFFFFFFFFFFFFFFFFFFFFFFFFFFFFFFFFFF AND DUP2 MSTORE PUSH1 0x20 ADD SWAP1 DUP2 MSTORE PUSH1 0x20 ADD PUSH1 0x0 KECCAK256 SLOAD PUSH1 0x40 MLOAD PUSH2 0x2F2 SWAP1 PUSH2 0x43F JUMP JUMPDEST PUSH1 0x0 PUSH1 0x40 MLOAD DUP1 DUP4 SUB DUP2 DUP6 DUP8 GAS CALL SWAP3 POP POP POP RETURNDATASIZE DUP1 PUSH1 0x0 DUP2 EQ PUSH2 0x32F JUMPI PUSH1 0x40 MLOAD SWAP2 POP PUSH1 0x1F NOT PUSH1 0x3F RETURNDATASIZE ADD AND DUP3 ADD PUSH1 0x40 MSTORE RETURNDATASIZE DUP3 MSTORE RETURNDATASIZE PUSH1 0x0 PUSH1 0x20 DUP5 ADD RETURNDATACOPY PUSH2 0x334 JUMP JUMPDEST PUSH1 0x60 SWAP2 POP JUMPDEST POP POP SWAP1 POP DUP1 PUSH2 0x378 JUMPI PUSH1 0x40 MLOAD PUSH32 0x8C379A000000000000000000000000000000000000000000000000000000000 DUP2 MSTORE PUSH1 0x4 ADD PUSH2 0x36F SWAP1 PUSH2 0x454 JUMP JUMPDEST PUSH1 0x40 MLOAD DUP1 SWAP2 SUB SWAP1 REVERT JUMPDEST POP DUP1 DUP1 PUSH2 0x384 SWAP1 PUSH2 0x4CC JUMP JUMPDEST SWAP2 POP POP PUSH2 0x204 JUMP JUMPDEST POP JUMP JUMPDEST PUSH1 0x0 DUP2 CALLDATALOAD SWAP1 POP PUSH2 0x39E DUP2 PUSH2 0x5A4 JUMP JUMPDEST SWAP3 SWAP2 POP POP JUMP JUMPDEST PUSH1 0x0 DUP2 CALLDATALOAD SWAP1 POP PUSH2 0x3B3 DUP2 PUSH2 0x5BB JUMP JUMPDEST SWAP3 SWAP2 POP POP JUMP JUMPDEST PUSH1 0x0 DUP1 PUSH1 0x40 DUP4 DUP6 SUB SLT ISZERO PUSH2 0x3D0 JUMPI PUSH2 0x3CF PUSH2 0x573 JUMP JUMPDEST JUMPDEST PUSH1 0x0 PUSH2 0x3DE DUP6 DUP3 DUP7 ADD PUSH2 0x38F JUMP JUMPDEST SWAP3 POP POP PUSH1 0x20 PUSH2 0x3EF DUP6 DUP3 DUP7 ADD PUSH2 0x3A4 JUMP JUMPDEST SWAP2 POP POP SWAP3 POP SWAP3 SWAP1 POP JUMP JUMPDEST PUSH1 0x0 PUSH2 0x406 PUSH1 0x0 DUP4 PUSH2 0x474 JUMP JUMPDEST SWAP2 POP PUSH2 0x411 DUP3 PUSH2 0x578 JUMP JUMPDEST PUSH1 0x0 DUP3 ADD SWAP1 POP SWAP2 SWAP1 POP JUMP JUMPDEST PUSH1 0x0 PUSH2 0x429 PUSH1 0x10 DUP4 PUSH2 0x47F JUMP JUMPDEST SWAP2 POP PUSH2 0x434 DUP3 PUSH2 0x57B JUMP JUMPDEST PUSH1 0x20 DUP3 ADD SWAP1 POP SWAP2 SWAP1 POP JUMP JUMPDEST PUSH1 0x0 PUSH2 0x44A DUP3 PUSH2 0x3F9 JUMP JUMPDEST SWAP2 POP DUP2 SWAP1 POP SWAP2 SWAP1 POP JUMP JUMPDEST PUSH1 0x0 PUSH1 0x20 DUP3 ADD SWAP1 POP DUP2 DUP2 SUB PUSH1 0x0 DUP4 ADD MSTORE PUSH2 0x46D DUP2 PUSH2 0x41C JUMP JUMPDEST SWAP1 POP SWAP2 SWAP1 POP JUMP JUMPDEST PUSH1 0x0 DUP2 SWAP1 POP SWAP3 SWAP2 POP POP JUMP JUMPDEST PUSH1 0x0 DUP3 DUP3 MSTORE PUSH1 0x20 DUP3 ADD SWAP1 POP SWAP3 SWAP2 POP POP JUMP JUMPDEST PUSH1 0x0 PUSH2 0x49B DUP3 PUSH2 0x4A2 JUMP JUMPDEST SWAP1 POP SWAP2 SWAP1 POP JUMP JUMPDEST PUSH1 0x0 PUSH20 0xFFFFFFFFFFFFFFFFFFFFFFFFFFFFFFFFFFFFFFFF DUP3 AND SWAP1 POP SWAP2 SWAP1 POP JUMP JUMPDEST PUSH1 0x0 DUP2 SWAP1 POP SWAP2 SWAP1 POP JUMP JUMPDEST PUSH1 0x0 PUSH2 0x4D7 DUP3 PUSH2 0x4C2 JUMP JUMPDEST SWAP2 POP PUSH32 0xFFFFFFFFFFFFFFFFFFFFFFFFFFFFFFFFFFFFFFFFFFFFFFFFFFFFFFFFFFFFFFFF DUP3 EQ ISZERO PUSH2 0x50A JUMPI PUSH2 0x509 PUSH2 0x515 JUMP JUMPDEST JUMPDEST PUSH1 0x1 DUP3 ADD SWAP1 POP SWAP2 SWAP1 POP JUMP JUMPDEST PUSH32 0x4E487B7100000000000000000000000000000000000000000000000000000000 PUSH1 0x0 MSTORE PUSH1 0x11 PUSH1 0x4 MSTORE PUSH1 0x24 PUSH1 0x0 REVERT JUMPDEST PUSH32 0x4E487B7100000000000000000000000000000000000000000000000000000000 PUSH1 0x0 MSTORE PUSH1 0x32 PUSH1 0x4 MSTORE PUSH1 0x24 PUSH1 0x0 REVERT JUMPDEST PUSH1 0x0 DUP1 REVERT JUMPDEST POP JUMP JUMPDEST PUSH32 0x5472616E73666572206661696C65642E00000000000000000000000000000000 PUSH1 0x0 DUP3 ADD MSTORE POP JUMP JUMPDEST PUSH2 0x5AD DUP2 PUSH2 0x490 JUMP JUMPDEST DUP2 EQ PUSH2 0x5B8 JUMPI PUSH1 0x0 DUP1 REVERT JUMPDEST POP JUMP JUMPDEST PUSH2 0x5C4 DUP2 PUSH2 0x4C2 JUMP JUMPDEST DUP2 EQ PUSH2 0x5CF JUMPI PUSH1 0x0 DUP1 REVERT JUMPDEST POP JUMP INVALID LOG2 PUSH5 0x6970667358 0x22 SLT KECCAK256 ADDMOD KECCAK256 SSTORE PUSH1 0xD0 DUP6 SSTORE 0xF8 PUSH18 0xD350AACBBB50EFE11C728EE0DC74E9C13EDB 0x4B GAS 0xBD PUSH24 0x6E64736F6C63430008070033000000000000000000000000 "
				},
				"gasEstimates": {
					"creation": {
						"codeDepositCost": "308800",
						"executionCost": "70971",
						"totalCost": "379771"
					},
					"external": {
						"payWill()": "infinite",
						"setInheritance(address,uint256)": "73578"
					},
					"internal": {
						"payout()": "infinite"
					}
				},
				"methodIdentifiers": {
					"payWill()": "124ecc29",
					"setInheritance(address,uint256)": "88d51594"
				}
			},
			"storageLayout": {
				"storage": [
					{
						"astId": 3,
						"contract": "will-contract.sol:Will",
						"label": "owner",
						"offset": 0,
						"slot": "0",
						"type": "t_address"
					},
					{
						"astId": 5,
						"contract": "will-contract.sol:Will",
						"label": "fortune",
						"offset": 0,
						"slot": "1",
						"type": "t_uint256"
					},
					{
						"astId": 7,
						"contract": "will-contract.sol:Will",
						"label": "deceased",
						"offset": 0,
						"slot": "2",
						"type": "t_bool"
					},
					{
						"astId": 49,
						"contract": "will-contract.sol:Will",
						"label": "familyWallets",
						"offset": 0,
						"slot": "3",
						"type": "t_array(t_address_payable)dyn_storage"
					},
					{
						"astId": 53,
						"contract": "will-contract.sol:Will",
						"label": "inheritance",
						"offset": 0,
						"slot": "4",
						"type": "t_mapping(t_address,t_uint256)"
					}
				],
				"types": {
					"t_address": {
						"encoding": "inplace",
						"label": "address",
						"numberOfBytes": "20"
					},
					"t_address_payable": {
						"encoding": "inplace",
						"label": "address payable",
						"numberOfBytes": "20"
					},
					"t_array(t_address_payable)dyn_storage": {
						"base": "t_address_payable",
						"encoding": "dynamic_array",
						"label": "address payable[]",
						"numberOfBytes": "32"
					},
					"t_bool": {
						"encoding": "inplace",
						"label": "bool",
						"numberOfBytes": "1"
					},
					"t_mapping(t_address,t_uint256)": {
						"encoding": "mapping",
						"key": "t_address",
						"label": "mapping(address => uint256)",
						"numberOfBytes": "32",
						"value": "t_uint256"
					},
					"t_uint256": {
						"encoding": "inplace",
						"label": "uint256",
						"numberOfBytes": "32"
					}
				}
			},
			"userdoc": {
				"kind": "user",
				"methods": {},
				"version": 1
			}
		}
	}
}